{
	"contracts/4_SimpleStorage.sol": {
		"SimpleStorage": {
			"abi": [
				{
					"inputs": [],
					"name": "Person",
					"outputs": [
						{
							"internalType": "uint256",
							"name": "fNumber",
							"type": "uint256"
						},
						{
							"internalType": "string",
							"name": "name",
							"type": "string"
						}
					],
					"stateMutability": "view",
					"type": "function"
				},
				{
					"inputs": [
						{
							"internalType": "string",
							"name": "_name",
							"type": "string"
						},
						{
							"internalType": "uint256",
							"name": "_fNumber",
							"type": "uint256"
						}
					],
					"name": "addPerson",
					"outputs": [],
					"stateMutability": "nonpayable",
					"type": "function"
				},
				{
					"inputs": [],
					"name": "fNumber",
					"outputs": [
						{
							"internalType": "uint256",
							"name": "",
							"type": "uint256"
						}
					],
					"stateMutability": "view",
					"type": "function"
				},
				{
					"inputs": [
						{
							"internalType": "string",
							"name": "",
							"type": "string"
						}
					],
					"name": "name_favNumberMap",
					"outputs": [
						{
							"internalType": "uint256",
							"name": "",
							"type": "uint256"
						}
					],
					"stateMutability": "view",
					"type": "function"
				},
				{
					"inputs": [
						{
							"internalType": "uint256",
							"name": "",
							"type": "uint256"
						}
					],
					"name": "people",
					"outputs": [
						{
							"internalType": "uint256",
							"name": "fNumber",
							"type": "uint256"
						},
						{
							"internalType": "string",
							"name": "name",
							"type": "string"
						}
					],
					"stateMutability": "view",
					"type": "function"
				},
				{
					"inputs": [
						{
							"internalType": "uint256",
							"name": "_number",
							"type": "uint256"
						}
					],
					"name": "pureFunction",
					"outputs": [],
					"stateMutability": "pure",
					"type": "function"
				},
				{
					"inputs": [],
					"name": "retrieve",
					"outputs": [
						{
							"internalType": "uint256",
							"name": "",
							"type": "uint256"
						}
					],
					"stateMutability": "view",
					"type": "function"
				},
				{
					"inputs": [
						{
							"internalType": "uint256",
							"name": "_fNumber",
							"type": "uint256"
						}
					],
					"name": "store",
					"outputs": [],
					"stateMutability": "nonpayable",
					"type": "function"
				}
			],
			"devdoc": {
				"kind": "dev",
				"methods": {},
				"version": 1
			},
			"evm": {
				"assembly": "    /* \"contracts/4_SimpleStorage.sol\":70:1741  contract SimpleStorage{\r... */\n  mstore(0x40, 0x80)\n    /* \"contracts/4_SimpleStorage.sol\":906:938  People({fNumber:7, name:\"Xavi\"}) */\n  mload(0x40)\n  dup1\n  0x40\n  add\n  0x40\n  mstore\n  dup1\n    /* \"contracts/4_SimpleStorage.sol\":922:923  7 */\n  0x07\n    /* \"contracts/4_SimpleStorage.sol\":906:938  People({fNumber:7, name:\"Xavi\"}) */\n  dup2\n  mstore\n  0x20\n  add\n  mload(0x40)\n  dup1\n  0x40\n  add\n  0x40\n  mstore\n  dup1\n  0x04\n  dup2\n  mstore\n  0x20\n  add\n  0x5861766900000000000000000000000000000000000000000000000000000000\n  dup2\n  mstore\n  pop\n  dup2\n  mstore\n  pop\n    /* \"contracts/4_SimpleStorage.sol\":883:938  People public Person = People({fNumber:7, name:\"Xavi\"}) */\n  0x03\n  0x00\n  dup3\n  add\n  mload\n  dup2\n  0x00\n  add\n  sstore\n  0x20\n  dup3\n  add\n  mload\n  dup2\n  0x01\n  add\n  swap1\n  dup1\n  mload\n  swap1\n  0x20\n  add\n  swap1\n  tag_1\n  swap3\n  swap2\n  swap1\n  tag_2\n  jump\t// in\ntag_1:\n  pop\n  pop\n  pop\n    /* \"contracts/4_SimpleStorage.sol\":70:1741  contract SimpleStorage{\r... */\n  callvalue\n  dup1\n  iszero\n  tag_3\n  jumpi\n  0x00\n  dup1\n  revert\ntag_3:\n  pop\n  jump(tag_4)\ntag_2:\n  dup3\n  dup1\n  sload\n  tag_5\n  swap1\n  tag_6\n  jump\t// in\ntag_5:\n  swap1\n  0x00\n  mstore\n  keccak256(0x00, 0x20)\n  swap1\n  0x1f\n  add\n  0x20\n  swap1\n  div\n  dup2\n  add\n  swap3\n  dup3\n  tag_8\n  jumpi\n  0x00\n  dup6\n  sstore\n  jump(tag_7)\ntag_8:\n  dup3\n  0x1f\n  lt\n  tag_9\n  jumpi\n  dup1\n  mload\n  not(0xff)\n  and\n  dup4\n  dup1\n  add\n  or\n  dup6\n  sstore\n  jump(tag_7)\ntag_9:\n  dup3\n  dup1\n  add\n  0x01\n  add\n  dup6\n  sstore\n  dup3\n  iszero\n  tag_7\n  jumpi\n  swap2\n  dup3\n  add\ntag_10:\n  dup3\n  dup2\n  gt\n  iszero\n  tag_11\n  jumpi\n  dup3\n  mload\n  dup3\n  sstore\n  swap2\n  0x20\n  add\n  swap2\n  swap1\n  0x01\n  add\n  swap1\n  jump(tag_10)\ntag_11:\ntag_7:\n  pop\n  swap1\n  pop\n  tag_12\n  swap2\n  swap1\n  tag_13\n  jump\t// in\ntag_12:\n  pop\n  swap1\n  jump\t// out\ntag_13:\ntag_14:\n  dup1\n  dup3\n  gt\n  iszero\n  tag_15\n  jumpi\n  0x00\n  dup2\n  0x00\n  swap1\n  sstore\n  pop\n  0x01\n  add\n  jump(tag_14)\ntag_15:\n  pop\n  swap1\n  jump\t// out\n    /* \"#utility.yul\":7:327   */\ntag_6:\n    /* \"#utility.yul\":51:57   */\n  0x00\n    /* \"#utility.yul\":88:89   */\n  0x02\n    /* \"#utility.yul\":82:86   */\n  dup3\n    /* \"#utility.yul\":78:90   */\n  div\n    /* \"#utility.yul\":68:90   */\n  swap1\n  pop\n    /* \"#utility.yul\":135:136   */\n  0x01\n    /* \"#utility.yul\":129:133   */\n  dup3\n    /* \"#utility.yul\":125:137   */\n  and\n    /* \"#utility.yul\":156:174   */\n  dup1\n    /* \"#utility.yul\":146:227   */\n  tag_18\n  jumpi\n    /* \"#utility.yul\":212:216   */\n  0x7f\n    /* \"#utility.yul\":204:210   */\n  dup3\n    /* \"#utility.yul\":200:217   */\n  and\n    /* \"#utility.yul\":190:217   */\n  swap2\n  pop\n    /* \"#utility.yul\":146:227   */\ntag_18:\n    /* \"#utility.yul\":274:276   */\n  0x20\n    /* \"#utility.yul\":266:272   */\n  dup3\n    /* \"#utility.yul\":263:277   */\n  lt\n    /* \"#utility.yul\":243:261   */\n  dup2\n    /* \"#utility.yul\":240:278   */\n  eq\n    /* \"#utility.yul\":237:321   */\n  iszero\n  tag_19\n  jumpi\n    /* \"#utility.yul\":293:311   */\n  tag_20\n  tag_21\n  jump\t// in\ntag_20:\n    /* \"#utility.yul\":237:321   */\ntag_19:\n    /* \"#utility.yul\":58:327   */\n  pop\n    /* \"#utility.yul\":7:327   */\n  swap2\n  swap1\n  pop\n  jump\t// out\n    /* \"#utility.yul\":333:513   */\ntag_21:\n    /* \"#utility.yul\":381:458   */\n  0x4e487b7100000000000000000000000000000000000000000000000000000000\n    /* \"#utility.yul\":378:379   */\n  0x00\n    /* \"#utility.yul\":371:459   */\n  mstore\n    /* \"#utility.yul\":478:482   */\n  0x22\n    /* \"#utility.yul\":475:476   */\n  0x04\n    /* \"#utility.yul\":468:483   */\n  mstore\n    /* \"#utility.yul\":502:506   */\n  0x24\n    /* \"#utility.yul\":499:500   */\n  0x00\n    /* \"#utility.yul\":492:507   */\n  revert\n    /* \"contracts/4_SimpleStorage.sol\":70:1741  contract SimpleStorage{\r... */\ntag_4:\n  dataSize(sub_0)\n  dup1\n  dataOffset(sub_0)\n  0x00\n  codecopy\n  0x00\n  return\nstop\n\nsub_0: assembly {\n        /* \"contracts/4_SimpleStorage.sol\":70:1741  contract SimpleStorage{\r... */\n      mstore(0x40, 0x80)\n      callvalue\n      dup1\n      iszero\n      tag_1\n      jumpi\n      0x00\n      dup1\n      revert\n    tag_1:\n      pop\n      jumpi(tag_2, lt(calldatasize, 0x04))\n      shr(0xe0, calldataload(0x00))\n      dup1\n      0x90ea423b\n      gt\n      tag_11\n      jumpi\n      dup1\n      0x90ea423b\n      eq\n      tag_7\n      jumpi\n      dup1\n      0x9e7a13ad\n      eq\n      tag_8\n      jumpi\n      dup1\n      0xb9c03b9a\n      eq\n      tag_9\n      jumpi\n      dup1\n      0xd6dea130\n      eq\n      tag_10\n      jumpi\n      jump(tag_2)\n    tag_11:\n      dup1\n      0x0ee28e37\n      eq\n      tag_3\n      jumpi\n      dup1\n      0x2e64cec1\n      eq\n      tag_4\n      jumpi\n      dup1\n      0x6057361d\n      eq\n      tag_5\n      jumpi\n      dup1\n      0x6f760f41\n      eq\n      tag_6\n      jumpi\n    tag_2:\n      0x00\n      dup1\n      revert\n        /* \"contracts/4_SimpleStorage.sol\":883:938  People public Person = People({fNumber:7, name:\"Xavi\"}) */\n    tag_3:\n      tag_12\n      tag_13\n      jump\t// in\n    tag_12:\n      mload(0x40)\n      tag_14\n      swap3\n      swap2\n      swap1\n      tag_15\n      jump\t// in\n    tag_14:\n      mload(0x40)\n      dup1\n      swap2\n      sub\n      swap1\n      return\n        /* \"contracts/4_SimpleStorage.sol\":1101:1182  function retrieve() public view returns(uint256){\r... */\n    tag_4:\n      tag_16\n      tag_17\n      jump\t// in\n    tag_16:\n      mload(0x40)\n      tag_18\n      swap2\n      swap1\n      tag_19\n      jump\t// in\n    tag_18:\n      mload(0x40)\n      dup1\n      swap2\n      sub\n      swap1\n      return\n        /* \"contracts/4_SimpleStorage.sol\":947:1034  function store(uint256 _fNumber) public{\r... */\n    tag_5:\n      tag_20\n      0x04\n      dup1\n      calldatasize\n      sub\n      dup2\n      add\n      swap1\n      tag_21\n      swap2\n      swap1\n      tag_22\n      jump\t// in\n    tag_21:\n      tag_23\n      jump\t// in\n    tag_20:\n      stop\n        /* \"contracts/4_SimpleStorage.sol\":1567:1730  function addPerson(string memory _name, uint256 _fNumber)public{\r... */\n    tag_6:\n      tag_24\n      0x04\n      dup1\n      calldatasize\n      sub\n      dup2\n      add\n      swap1\n      tag_25\n      swap2\n      swap1\n      tag_26\n      jump\t// in\n    tag_25:\n      tag_27\n      jump\t// in\n    tag_24:\n      stop\n        /* \"contracts/4_SimpleStorage.sol\":105:127  uint256 public fNumber */\n    tag_7:\n      tag_28\n      tag_29\n      jump\t// in\n    tag_28:\n      mload(0x40)\n      tag_30\n      swap2\n      swap1\n      tag_19\n      jump\t// in\n    tag_30:\n      mload(0x40)\n      dup1\n      swap2\n      sub\n      swap1\n      return\n        /* \"contracts/4_SimpleStorage.sol\":857:879  People[] public people */\n    tag_8:\n      tag_31\n      0x04\n      dup1\n      calldatasize\n      sub\n      dup2\n      add\n      swap1\n      tag_32\n      swap2\n      swap1\n      tag_22\n      jump\t// in\n    tag_32:\n      tag_33\n      jump\t// in\n    tag_31:\n      mload(0x40)\n      tag_34\n      swap3\n      swap2\n      swap1\n      tag_15\n      jump\t// in\n    tag_34:\n      mload(0x40)\n      dup1\n      swap2\n      sub\n      swap1\n      return\n        /* \"contracts/4_SimpleStorage.sol\":1218:1306  function pureFunction(uint256 _number) public pure{\r... */\n    tag_9:\n      tag_35\n      0x04\n      dup1\n      calldatasize\n      sub\n      dup2\n      add\n      swap1\n      tag_36\n      swap2\n      swap1\n      tag_22\n      jump\t// in\n    tag_36:\n      tag_37\n      jump\t// in\n    tag_35:\n      stop\n        /* \"contracts/4_SimpleStorage.sol\":794:845  mapping(string => uint256) public name_favNumberMap */\n    tag_10:\n      tag_38\n      0x04\n      dup1\n      calldatasize\n      sub\n      dup2\n      add\n      swap1\n      tag_39\n      swap2\n      swap1\n      tag_40\n      jump\t// in\n    tag_39:\n      tag_41\n      jump\t// in\n    tag_38:\n      mload(0x40)\n      tag_42\n      swap2\n      swap1\n      tag_19\n      jump\t// in\n    tag_42:\n      mload(0x40)\n      dup1\n      swap2\n      sub\n      swap1\n      return\n        /* \"contracts/4_SimpleStorage.sol\":883:938  People public Person = People({fNumber:7, name:\"Xavi\"}) */\n    tag_13:\n      0x03\n      dup1\n      0x00\n      add\n      sload\n      swap1\n      dup1\n      0x01\n      add\n      dup1\n      sload\n      tag_43\n      swap1\n      tag_44\n      jump\t// in\n    tag_43:\n      dup1\n      0x1f\n      add\n      0x20\n      dup1\n      swap2\n      div\n      mul\n      0x20\n      add\n      mload(0x40)\n      swap1\n      dup2\n      add\n      0x40\n      mstore\n      dup1\n      swap3\n      swap2\n      swap1\n      dup2\n      dup2\n      mstore\n      0x20\n      add\n      dup3\n      dup1\n      sload\n      tag_45\n      swap1\n      tag_44\n      jump\t// in\n    tag_45:\n      dup1\n      iszero\n      tag_46\n      jumpi\n      dup1\n      0x1f\n      lt\n      tag_47\n      jumpi\n      0x0100\n      dup1\n      dup4\n      sload\n      div\n      mul\n      dup4\n      mstore\n      swap2\n      0x20\n      add\n      swap2\n      jump(tag_46)\n    tag_47:\n      dup3\n      add\n      swap2\n      swap1\n      0x00\n      mstore\n      keccak256(0x00, 0x20)\n      swap1\n    tag_48:\n      dup2\n      sload\n      dup2\n      mstore\n      swap1\n      0x01\n      add\n      swap1\n      0x20\n      add\n      dup1\n      dup4\n      gt\n      tag_48\n      jumpi\n      dup3\n      swap1\n      sub\n      0x1f\n      and\n      dup3\n      add\n      swap2\n    tag_46:\n      pop\n      pop\n      pop\n      pop\n      pop\n      swap1\n      pop\n      dup3\n      jump\t// out\n        /* \"contracts/4_SimpleStorage.sol\":1101:1182  function retrieve() public view returns(uint256){\r... */\n    tag_17:\n        /* \"contracts/4_SimpleStorage.sol\":1141:1148  uint256 */\n      0x00\n        /* \"contracts/4_SimpleStorage.sol\":1167:1174  fNumber */\n      dup1\n      sload\n        /* \"contracts/4_SimpleStorage.sol\":1160:1174  return fNumber */\n      swap1\n      pop\n        /* \"contracts/4_SimpleStorage.sol\":1101:1182  function retrieve() public view returns(uint256){\r... */\n      swap1\n      jump\t// out\n        /* \"contracts/4_SimpleStorage.sol\":947:1034  function store(uint256 _fNumber) public{\r... */\n    tag_23:\n        /* \"contracts/4_SimpleStorage.sol\":1006:1014  _fNumber */\n      dup1\n        /* \"contracts/4_SimpleStorage.sol\":997:1004  fNumber */\n      0x00\n        /* \"contracts/4_SimpleStorage.sol\":997:1014  fNumber= _fNumber */\n      dup2\n      swap1\n      sstore\n      pop\n        /* \"contracts/4_SimpleStorage.sol\":947:1034  function store(uint256 _fNumber) public{\r... */\n      pop\n      jump\t// out\n        /* \"contracts/4_SimpleStorage.sol\":1567:1730  function addPerson(string memory _name, uint256 _fNumber)public{\r... */\n    tag_27:\n        /* \"contracts/4_SimpleStorage.sol\":1641:1647  people */\n      0x02\n        /* \"contracts/4_SimpleStorage.sol\":1653:1675  People(_fNumber,_name) */\n      mload(0x40)\n      dup1\n      0x40\n      add\n      0x40\n      mstore\n      dup1\n        /* \"contracts/4_SimpleStorage.sol\":1660:1668  _fNumber */\n      dup4\n        /* \"contracts/4_SimpleStorage.sol\":1653:1675  People(_fNumber,_name) */\n      dup2\n      mstore\n      0x20\n      add\n        /* \"contracts/4_SimpleStorage.sol\":1669:1674  _name */\n      dup5\n        /* \"contracts/4_SimpleStorage.sol\":1653:1675  People(_fNumber,_name) */\n      dup2\n      mstore\n      pop\n        /* \"contracts/4_SimpleStorage.sol\":1641:1676  people.push(People(_fNumber,_name)) */\n      swap1\n      dup1\n      0x01\n      dup2\n      sload\n      add\n      dup1\n      dup3\n      sstore\n      dup1\n      swap2\n      pop\n      pop\n      0x01\n      swap1\n      sub\n      swap1\n      0x00\n      mstore\n      keccak256(0x00, 0x20)\n      swap1\n      0x02\n      mul\n      add\n      0x00\n      swap1\n      swap2\n      swap1\n      swap2\n      swap1\n      swap2\n      pop\n      0x00\n      dup3\n      add\n      mload\n      dup2\n      0x00\n      add\n      sstore\n      0x20\n      dup3\n      add\n      mload\n      dup2\n      0x01\n      add\n      swap1\n      dup1\n      mload\n      swap1\n      0x20\n      add\n      swap1\n      tag_53\n      swap3\n      swap2\n      swap1\n      tag_54\n      jump\t// in\n    tag_53:\n      pop\n      pop\n      pop\n        /* \"contracts/4_SimpleStorage.sol\":1714:1722  _fNumber */\n      dup1\n        /* \"contracts/4_SimpleStorage.sol\":1688:1705  name_favNumberMap */\n      0x01\n        /* \"contracts/4_SimpleStorage.sol\":1706:1711  _name */\n      dup4\n        /* \"contracts/4_SimpleStorage.sol\":1688:1712  name_favNumberMap[_name] */\n      mload(0x40)\n      tag_55\n      swap2\n      swap1\n      tag_56\n      jump\t// in\n    tag_55:\n      swap1\n      dup2\n      mstore\n      0x20\n      add\n      mload(0x40)\n      dup1\n      swap2\n      sub\n      swap1\n      keccak256\n        /* \"contracts/4_SimpleStorage.sol\":1688:1722  name_favNumberMap[_name]= _fNumber */\n      dup2\n      swap1\n      sstore\n      pop\n        /* \"contracts/4_SimpleStorage.sol\":1567:1730  function addPerson(string memory _name, uint256 _fNumber)public{\r... */\n      pop\n      pop\n      jump\t// out\n        /* \"contracts/4_SimpleStorage.sol\":105:127  uint256 public fNumber */\n    tag_29:\n      sload(0x00)\n      dup2\n      jump\t// out\n        /* \"contracts/4_SimpleStorage.sol\":857:879  People[] public people */\n    tag_33:\n      0x02\n      dup2\n      dup2\n      sload\n      dup2\n      lt\n      tag_57\n      jumpi\n      0x00\n      dup1\n      revert\n    tag_57:\n      swap1\n      0x00\n      mstore\n      keccak256(0x00, 0x20)\n      swap1\n      0x02\n      mul\n      add\n      0x00\n      swap2\n      pop\n      swap1\n      pop\n      dup1\n      0x00\n      add\n      sload\n      swap1\n      dup1\n      0x01\n      add\n      dup1\n      sload\n      tag_59\n      swap1\n      tag_44\n      jump\t// in\n    tag_59:\n      dup1\n      0x1f\n      add\n      0x20\n      dup1\n      swap2\n      div\n      mul\n      0x20\n      add\n      mload(0x40)\n      swap1\n      dup2\n      add\n      0x40\n      mstore\n      dup1\n      swap3\n      swap2\n      swap1\n      dup2\n      dup2\n      mstore\n      0x20\n      add\n      dup3\n      dup1\n      sload\n      tag_60\n      swap1\n      tag_44\n      jump\t// in\n    tag_60:\n      dup1\n      iszero\n      tag_61\n      jumpi\n      dup1\n      0x1f\n      lt\n      tag_62\n      jumpi\n      0x0100\n      dup1\n      dup4\n      sload\n      div\n      mul\n      dup4\n      mstore\n      swap2\n      0x20\n      add\n      swap2\n      jump(tag_61)\n    tag_62:\n      dup3\n      add\n      swap2\n      swap1\n      0x00\n      mstore\n      keccak256(0x00, 0x20)\n      swap1\n    tag_63:\n      dup2\n      sload\n      dup2\n      mstore\n      swap1\n      0x01\n      add\n      swap1\n      0x20\n      add\n      dup1\n      dup4\n      gt\n      tag_63\n      jumpi\n      dup3\n      swap1\n      sub\n      0x1f\n      and\n      dup3\n      add\n      swap2\n    tag_61:\n      pop\n      pop\n      pop\n      pop\n      pop\n      swap1\n      pop\n      dup3\n      jump\t// out\n        /* \"contracts/4_SimpleStorage.sol\":1218:1306  function pureFunction(uint256 _number) public pure{\r... */\n    tag_37:\n        /* \"contracts/4_SimpleStorage.sol\":1289:1296  _number */\n      dup1\n        /* \"contracts/4_SimpleStorage.sol\":1279:1286  _number */\n      dup2\n        /* \"contracts/4_SimpleStorage.sol\":1279:1296  _number + _number */\n      tag_65\n      swap2\n      swap1\n      tag_66\n      jump\t// in\n    tag_65:\n      pop\n        /* \"contracts/4_SimpleStorage.sol\":1218:1306  function pureFunction(uint256 _number) public pure{\r... */\n      pop\n      jump\t// out\n        /* \"contracts/4_SimpleStorage.sol\":794:845  mapping(string => uint256) public name_favNumberMap */\n    tag_41:\n      0x01\n      dup2\n      dup1\n      mload\n      0x20\n      dup2\n      add\n      dup3\n      add\n      dup1\n      mload\n      dup5\n      dup3\n      mstore\n      0x20\n      dup4\n      add\n      0x20\n      dup6\n      add\n      keccak256\n      dup2\n      dup4\n      mstore\n      dup1\n      swap6\n      pop\n      pop\n      pop\n      pop\n      pop\n      pop\n      0x00\n      swap2\n      pop\n      swap1\n      pop\n      sload\n      dup2\n      jump\t// out\n    tag_54:\n      dup3\n      dup1\n      sload\n      tag_67\n      swap1\n      tag_44\n      jump\t// in\n    tag_67:\n      swap1\n      0x00\n      mstore\n      keccak256(0x00, 0x20)\n      swap1\n      0x1f\n      add\n      0x20\n      swap1\n      div\n      dup2\n      add\n      swap3\n      dup3\n      tag_69\n      jumpi\n      0x00\n      dup6\n      sstore\n      jump(tag_68)\n    tag_69:\n      dup3\n      0x1f\n      lt\n      tag_70\n      jumpi\n      dup1\n      mload\n      not(0xff)\n      and\n      dup4\n      dup1\n      add\n      or\n      dup6\n      sstore\n      jump(tag_68)\n    tag_70:\n      dup3\n      dup1\n      add\n      0x01\n      add\n      dup6\n      sstore\n      dup3\n      iszero\n      tag_68\n      jumpi\n      swap2\n      dup3\n      add\n    tag_71:\n      dup3\n      dup2\n      gt\n      iszero\n      tag_72\n      jumpi\n      dup3\n      mload\n      dup3\n      sstore\n      swap2\n      0x20\n      add\n      swap2\n      swap1\n      0x01\n      add\n      swap1\n      jump(tag_71)\n    tag_72:\n    tag_68:\n      pop\n      swap1\n      pop\n      tag_73\n      swap2\n      swap1\n      tag_74\n      jump\t// in\n    tag_73:\n      pop\n      swap1\n      jump\t// out\n    tag_74:\n    tag_75:\n      dup1\n      dup3\n      gt\n      iszero\n      tag_76\n      jumpi\n      0x00\n      dup2\n      0x00\n      swap1\n      sstore\n      pop\n      0x01\n      add\n      jump(tag_75)\n    tag_76:\n      pop\n      swap1\n      jump\t// out\n        /* \"#utility.yul\":7:419   */\n    tag_78:\n        /* \"#utility.yul\":85:90   */\n      0x00\n        /* \"#utility.yul\":110:176   */\n      tag_80\n        /* \"#utility.yul\":126:175   */\n      tag_81\n        /* \"#utility.yul\":168:174   */\n      dup5\n        /* \"#utility.yul\":126:175   */\n      tag_82\n      jump\t// in\n    tag_81:\n        /* \"#utility.yul\":110:176   */\n      tag_83\n      jump\t// in\n    tag_80:\n        /* \"#utility.yul\":101:176   */\n      swap1\n      pop\n        /* \"#utility.yul\":199:205   */\n      dup3\n        /* \"#utility.yul\":192:197   */\n      dup2\n        /* \"#utility.yul\":185:206   */\n      mstore\n        /* \"#utility.yul\":237:241   */\n      0x20\n        /* \"#utility.yul\":230:235   */\n      dup2\n        /* \"#utility.yul\":226:242   */\n      add\n        /* \"#utility.yul\":275:278   */\n      dup5\n        /* \"#utility.yul\":266:272   */\n      dup5\n        /* \"#utility.yul\":261:264   */\n      dup5\n        /* \"#utility.yul\":257:273   */\n      add\n        /* \"#utility.yul\":254:279   */\n      gt\n        /* \"#utility.yul\":251:363   */\n      iszero\n      tag_84\n      jumpi\n        /* \"#utility.yul\":282:361   */\n      tag_85\n      tag_86\n      jump\t// in\n    tag_85:\n        /* \"#utility.yul\":251:363   */\n    tag_84:\n        /* \"#utility.yul\":372:413   */\n      tag_87\n        /* \"#utility.yul\":406:412   */\n      dup5\n        /* \"#utility.yul\":401:404   */\n      dup3\n        /* \"#utility.yul\":396:399   */\n      dup6\n        /* \"#utility.yul\":372:413   */\n      tag_88\n      jump\t// in\n    tag_87:\n        /* \"#utility.yul\":91:419   */\n      pop\n        /* \"#utility.yul\":7:419   */\n      swap4\n      swap3\n      pop\n      pop\n      pop\n      jump\t// out\n        /* \"#utility.yul\":439:779   */\n    tag_89:\n        /* \"#utility.yul\":495:500   */\n      0x00\n        /* \"#utility.yul\":544:547   */\n      dup3\n        /* \"#utility.yul\":537:541   */\n      0x1f\n        /* \"#utility.yul\":529:535   */\n      dup4\n        /* \"#utility.yul\":525:542   */\n      add\n        /* \"#utility.yul\":521:548   */\n      slt\n        /* \"#utility.yul\":511:633   */\n      tag_91\n      jumpi\n        /* \"#utility.yul\":552:631   */\n      tag_92\n      tag_93\n      jump\t// in\n    tag_92:\n        /* \"#utility.yul\":511:633   */\n    tag_91:\n        /* \"#utility.yul\":669:675   */\n      dup2\n        /* \"#utility.yul\":656:676   */\n      calldataload\n        /* \"#utility.yul\":694:773   */\n      tag_94\n        /* \"#utility.yul\":769:772   */\n      dup5\n        /* \"#utility.yul\":761:767   */\n      dup3\n        /* \"#utility.yul\":754:758   */\n      0x20\n        /* \"#utility.yul\":746:752   */\n      dup7\n        /* \"#utility.yul\":742:759   */\n      add\n        /* \"#utility.yul\":694:773   */\n      tag_78\n      jump\t// in\n    tag_94:\n        /* \"#utility.yul\":685:773   */\n      swap2\n      pop\n        /* \"#utility.yul\":501:779   */\n      pop\n        /* \"#utility.yul\":439:779   */\n      swap3\n      swap2\n      pop\n      pop\n      jump\t// out\n        /* \"#utility.yul\":785:924   */\n    tag_95:\n        /* \"#utility.yul\":831:836   */\n      0x00\n        /* \"#utility.yul\":869:875   */\n      dup2\n        /* \"#utility.yul\":856:876   */\n      calldataload\n        /* \"#utility.yul\":847:876   */\n      swap1\n      pop\n        /* \"#utility.yul\":885:918   */\n      tag_97\n        /* \"#utility.yul\":912:917   */\n      dup2\n        /* \"#utility.yul\":885:918   */\n      tag_98\n      jump\t// in\n    tag_97:\n        /* \"#utility.yul\":785:924   */\n      swap3\n      swap2\n      pop\n      pop\n      jump\t// out\n        /* \"#utility.yul\":930:1439   */\n    tag_40:\n        /* \"#utility.yul\":999:1005   */\n      0x00\n        /* \"#utility.yul\":1048:1050   */\n      0x20\n        /* \"#utility.yul\":1036:1045   */\n      dup3\n        /* \"#utility.yul\":1027:1034   */\n      dup5\n        /* \"#utility.yul\":1023:1046   */\n      sub\n        /* \"#utility.yul\":1019:1051   */\n      slt\n        /* \"#utility.yul\":1016:1135   */\n      iszero\n      tag_100\n      jumpi\n        /* \"#utility.yul\":1054:1133   */\n      tag_101\n      tag_102\n      jump\t// in\n    tag_101:\n        /* \"#utility.yul\":1016:1135   */\n    tag_100:\n        /* \"#utility.yul\":1202:1203   */\n      0x00\n        /* \"#utility.yul\":1191:1200   */\n      dup3\n        /* \"#utility.yul\":1187:1204   */\n      add\n        /* \"#utility.yul\":1174:1205   */\n      calldataload\n        /* \"#utility.yul\":1232:1250   */\n      0xffffffffffffffff\n        /* \"#utility.yul\":1224:1230   */\n      dup2\n        /* \"#utility.yul\":1221:1251   */\n      gt\n        /* \"#utility.yul\":1218:1335   */\n      iszero\n      tag_103\n      jumpi\n        /* \"#utility.yul\":1254:1333   */\n      tag_104\n      tag_105\n      jump\t// in\n    tag_104:\n        /* \"#utility.yul\":1218:1335   */\n    tag_103:\n        /* \"#utility.yul\":1359:1422   */\n      tag_106\n        /* \"#utility.yul\":1414:1421   */\n      dup5\n        /* \"#utility.yul\":1405:1411   */\n      dup3\n        /* \"#utility.yul\":1394:1403   */\n      dup6\n        /* \"#utility.yul\":1390:1412   */\n      add\n        /* \"#utility.yul\":1359:1422   */\n      tag_89\n      jump\t// in\n    tag_106:\n        /* \"#utility.yul\":1349:1422   */\n      swap2\n      pop\n        /* \"#utility.yul\":1145:1432   */\n      pop\n        /* \"#utility.yul\":930:1439   */\n      swap3\n      swap2\n      pop\n      pop\n      jump\t// out\n        /* \"#utility.yul\":1445:2099   */\n    tag_26:\n        /* \"#utility.yul\":1523:1529   */\n      0x00\n        /* \"#utility.yul\":1531:1537   */\n      dup1\n        /* \"#utility.yul\":1580:1582   */\n      0x40\n        /* \"#utility.yul\":1568:1577   */\n      dup4\n        /* \"#utility.yul\":1559:1566   */\n      dup6\n        /* \"#utility.yul\":1555:1578   */\n      sub\n        /* \"#utility.yul\":1551:1583   */\n      slt\n        /* \"#utility.yul\":1548:1667   */\n      iszero\n      tag_108\n      jumpi\n        /* \"#utility.yul\":1586:1665   */\n      tag_109\n      tag_102\n      jump\t// in\n    tag_109:\n        /* \"#utility.yul\":1548:1667   */\n    tag_108:\n        /* \"#utility.yul\":1734:1735   */\n      0x00\n        /* \"#utility.yul\":1723:1732   */\n      dup4\n        /* \"#utility.yul\":1719:1736   */\n      add\n        /* \"#utility.yul\":1706:1737   */\n      calldataload\n        /* \"#utility.yul\":1764:1782   */\n      0xffffffffffffffff\n        /* \"#utility.yul\":1756:1762   */\n      dup2\n        /* \"#utility.yul\":1753:1783   */\n      gt\n        /* \"#utility.yul\":1750:1867   */\n      iszero\n      tag_110\n      jumpi\n        /* \"#utility.yul\":1786:1865   */\n      tag_111\n      tag_105\n      jump\t// in\n    tag_111:\n        /* \"#utility.yul\":1750:1867   */\n    tag_110:\n        /* \"#utility.yul\":1891:1954   */\n      tag_112\n        /* \"#utility.yul\":1946:1953   */\n      dup6\n        /* \"#utility.yul\":1937:1943   */\n      dup3\n        /* \"#utility.yul\":1926:1935   */\n      dup7\n        /* \"#utility.yul\":1922:1944   */\n      add\n        /* \"#utility.yul\":1891:1954   */\n      tag_89\n      jump\t// in\n    tag_112:\n        /* \"#utility.yul\":1881:1954   */\n      swap3\n      pop\n        /* \"#utility.yul\":1677:1964   */\n      pop\n        /* \"#utility.yul\":2003:2005   */\n      0x20\n        /* \"#utility.yul\":2029:2082   */\n      tag_113\n        /* \"#utility.yul\":2074:2081   */\n      dup6\n        /* \"#utility.yul\":2065:2071   */\n      dup3\n        /* \"#utility.yul\":2054:2063   */\n      dup7\n        /* \"#utility.yul\":2050:2072   */\n      add\n        /* \"#utility.yul\":2029:2082   */\n      tag_95\n      jump\t// in\n    tag_113:\n        /* \"#utility.yul\":2019:2082   */\n      swap2\n      pop\n        /* \"#utility.yul\":1974:2092   */\n      pop\n        /* \"#utility.yul\":1445:2099   */\n      swap3\n      pop\n      swap3\n      swap1\n      pop\n      jump\t// out\n        /* \"#utility.yul\":2105:2434   */\n    tag_22:\n        /* \"#utility.yul\":2164:2170   */\n      0x00\n        /* \"#utility.yul\":2213:2215   */\n      0x20\n        /* \"#utility.yul\":2201:2210   */\n      dup3\n        /* \"#utility.yul\":2192:2199   */\n      dup5\n        /* \"#utility.yul\":2188:2211   */\n      sub\n        /* \"#utility.yul\":2184:2216   */\n      slt\n        /* \"#utility.yul\":2181:2300   */\n      iszero\n      tag_115\n      jumpi\n        /* \"#utility.yul\":2219:2298   */\n      tag_116\n      tag_102\n      jump\t// in\n    tag_116:\n        /* \"#utility.yul\":2181:2300   */\n    tag_115:\n        /* \"#utility.yul\":2339:2340   */\n      0x00\n        /* \"#utility.yul\":2364:2417   */\n      tag_117\n        /* \"#utility.yul\":2409:2416   */\n      dup5\n        /* \"#utility.yul\":2400:2406   */\n      dup3\n        /* \"#utility.yul\":2389:2398   */\n      dup6\n        /* \"#utility.yul\":2385:2407   */\n      add\n        /* \"#utility.yul\":2364:2417   */\n      tag_95\n      jump\t// in\n    tag_117:\n        /* \"#utility.yul\":2354:2417   */\n      swap2\n      pop\n        /* \"#utility.yul\":2310:2427   */\n      pop\n        /* \"#utility.yul\":2105:2434   */\n      swap3\n      swap2\n      pop\n      pop\n      jump\t// out\n        /* \"#utility.yul\":2440:2804   */\n    tag_118:\n        /* \"#utility.yul\":2528:2531   */\n      0x00\n        /* \"#utility.yul\":2556:2595   */\n      tag_120\n        /* \"#utility.yul\":2589:2594   */\n      dup3\n        /* \"#utility.yul\":2556:2595   */\n      tag_121\n      jump\t// in\n    tag_120:\n        /* \"#utility.yul\":2611:2682   */\n      tag_122\n        /* \"#utility.yul\":2675:2681   */\n      dup2\n        /* \"#utility.yul\":2670:2673   */\n      dup6\n        /* \"#utility.yul\":2611:2682   */\n      tag_123\n      jump\t// in\n    tag_122:\n        /* \"#utility.yul\":2604:2682   */\n      swap4\n      pop\n        /* \"#utility.yul\":2691:2743   */\n      tag_124\n        /* \"#utility.yul\":2736:2742   */\n      dup2\n        /* \"#utility.yul\":2731:2734   */\n      dup6\n        /* \"#utility.yul\":2724:2728   */\n      0x20\n        /* \"#utility.yul\":2717:2722   */\n      dup7\n        /* \"#utility.yul\":2713:2729   */\n      add\n        /* \"#utility.yul\":2691:2743   */\n      tag_125\n      jump\t// in\n    tag_124:\n        /* \"#utility.yul\":2768:2797   */\n      tag_126\n        /* \"#utility.yul\":2790:2796   */\n      dup2\n        /* \"#utility.yul\":2768:2797   */\n      tag_127\n      jump\t// in\n    tag_126:\n        /* \"#utility.yul\":2763:2766   */\n      dup5\n        /* \"#utility.yul\":2759:2798   */\n      add\n        /* \"#utility.yul\":2752:2798   */\n      swap2\n      pop\n        /* \"#utility.yul\":2532:2804   */\n      pop\n        /* \"#utility.yul\":2440:2804   */\n      swap3\n      swap2\n      pop\n      pop\n      jump\t// out\n        /* \"#utility.yul\":2810:3187   */\n    tag_128:\n        /* \"#utility.yul\":2916:2919   */\n      0x00\n        /* \"#utility.yul\":2944:2983   */\n      tag_130\n        /* \"#utility.yul\":2977:2982   */\n      dup3\n        /* \"#utility.yul\":2944:2983   */\n      tag_121\n      jump\t// in\n    tag_130:\n        /* \"#utility.yul\":2999:3088   */\n      tag_131\n        /* \"#utility.yul\":3081:3087   */\n      dup2\n        /* \"#utility.yul\":3076:3079   */\n      dup6\n        /* \"#utility.yul\":2999:3088   */\n      tag_132\n      jump\t// in\n    tag_131:\n        /* \"#utility.yul\":2992:3088   */\n      swap4\n      pop\n        /* \"#utility.yul\":3097:3149   */\n      tag_133\n        /* \"#utility.yul\":3142:3148   */\n      dup2\n        /* \"#utility.yul\":3137:3140   */\n      dup6\n        /* \"#utility.yul\":3130:3134   */\n      0x20\n        /* \"#utility.yul\":3123:3128   */\n      dup7\n        /* \"#utility.yul\":3119:3135   */\n      add\n        /* \"#utility.yul\":3097:3149   */\n      tag_125\n      jump\t// in\n    tag_133:\n        /* \"#utility.yul\":3174:3180   */\n      dup1\n        /* \"#utility.yul\":3169:3172   */\n      dup5\n        /* \"#utility.yul\":3165:3181   */\n      add\n        /* \"#utility.yul\":3158:3181   */\n      swap2\n      pop\n        /* \"#utility.yul\":2920:3187   */\n      pop\n        /* \"#utility.yul\":2810:3187   */\n      swap3\n      swap2\n      pop\n      pop\n      jump\t// out\n        /* \"#utility.yul\":3193:3311   */\n    tag_134:\n        /* \"#utility.yul\":3280:3304   */\n      tag_136\n        /* \"#utility.yul\":3298:3303   */\n      dup2\n        /* \"#utility.yul\":3280:3304   */\n      tag_137\n      jump\t// in\n    tag_136:\n        /* \"#utility.yul\":3275:3278   */\n      dup3\n        /* \"#utility.yul\":3268:3305   */\n      mstore\n        /* \"#utility.yul\":3193:3311   */\n      pop\n      pop\n      jump\t// out\n        /* \"#utility.yul\":3317:3592   */\n    tag_56:\n        /* \"#utility.yul\":3449:3452   */\n      0x00\n        /* \"#utility.yul\":3471:3566   */\n      tag_139\n        /* \"#utility.yul\":3562:3565   */\n      dup3\n        /* \"#utility.yul\":3553:3559   */\n      dup5\n        /* \"#utility.yul\":3471:3566   */\n      tag_128\n      jump\t// in\n    tag_139:\n        /* \"#utility.yul\":3464:3566   */\n      swap2\n      pop\n        /* \"#utility.yul\":3583:3586   */\n      dup2\n        /* \"#utility.yul\":3576:3586   */\n      swap1\n      pop\n        /* \"#utility.yul\":3317:3592   */\n      swap3\n      swap2\n      pop\n      pop\n      jump\t// out\n        /* \"#utility.yul\":3598:3820   */\n    tag_19:\n        /* \"#utility.yul\":3691:3695   */\n      0x00\n        /* \"#utility.yul\":3729:3731   */\n      0x20\n        /* \"#utility.yul\":3718:3727   */\n      dup3\n        /* \"#utility.yul\":3714:3732   */\n      add\n        /* \"#utility.yul\":3706:3732   */\n      swap1\n      pop\n        /* \"#utility.yul\":3742:3813   */\n      tag_141\n        /* \"#utility.yul\":3810:3811   */\n      0x00\n        /* \"#utility.yul\":3799:3808   */\n      dup4\n        /* \"#utility.yul\":3795:3812   */\n      add\n        /* \"#utility.yul\":3786:3792   */\n      dup5\n        /* \"#utility.yul\":3742:3813   */\n      tag_134\n      jump\t// in\n    tag_141:\n        /* \"#utility.yul\":3598:3820   */\n      swap3\n      swap2\n      pop\n      pop\n      jump\t// out\n        /* \"#utility.yul\":3826:4249   */\n    tag_15:\n        /* \"#utility.yul\":3967:3971   */\n      0x00\n        /* \"#utility.yul\":4005:4007   */\n      0x40\n        /* \"#utility.yul\":3994:4003   */\n      dup3\n        /* \"#utility.yul\":3990:4008   */\n      add\n        /* \"#utility.yul\":3982:4008   */\n      swap1\n      pop\n        /* \"#utility.yul\":4018:4089   */\n      tag_143\n        /* \"#utility.yul\":4086:4087   */\n      0x00\n        /* \"#utility.yul\":4075:4084   */\n      dup4\n        /* \"#utility.yul\":4071:4088   */\n      add\n        /* \"#utility.yul\":4062:4068   */\n      dup6\n        /* \"#utility.yul\":4018:4089   */\n      tag_134\n      jump\t// in\n    tag_143:\n        /* \"#utility.yul\":4136:4145   */\n      dup2\n        /* \"#utility.yul\":4130:4134   */\n      dup2\n        /* \"#utility.yul\":4126:4146   */\n      sub\n        /* \"#utility.yul\":4121:4123   */\n      0x20\n        /* \"#utility.yul\":4110:4119   */\n      dup4\n        /* \"#utility.yul\":4106:4124   */\n      add\n        /* \"#utility.yul\":4099:4147   */\n      mstore\n        /* \"#utility.yul\":4164:4242   */\n      tag_144\n        /* \"#utility.yul\":4237:4241   */\n      dup2\n        /* \"#utility.yul\":4228:4234   */\n      dup5\n        /* \"#utility.yul\":4164:4242   */\n      tag_118\n      jump\t// in\n    tag_144:\n        /* \"#utility.yul\":4156:4242   */\n      swap1\n      pop\n        /* \"#utility.yul\":3826:4249   */\n      swap4\n      swap3\n      pop\n      pop\n      pop\n      jump\t// out\n        /* \"#utility.yul\":4255:4384   */\n    tag_83:\n        /* \"#utility.yul\":4289:4295   */\n      0x00\n        /* \"#utility.yul\":4316:4336   */\n      tag_146\n      tag_147\n      jump\t// in\n    tag_146:\n        /* \"#utility.yul\":4306:4336   */\n      swap1\n      pop\n        /* \"#utility.yul\":4345:4378   */\n      tag_148\n        /* \"#utility.yul\":4373:4377   */\n      dup3\n        /* \"#utility.yul\":4365:4371   */\n      dup3\n        /* \"#utility.yul\":4345:4378   */\n      tag_149\n      jump\t// in\n    tag_148:\n        /* \"#utility.yul\":4255:4384   */\n      swap2\n      swap1\n      pop\n      jump\t// out\n        /* \"#utility.yul\":4390:4465   */\n    tag_147:\n        /* \"#utility.yul\":4423:4429   */\n      0x00\n        /* \"#utility.yul\":4456:4458   */\n      0x40\n        /* \"#utility.yul\":4450:4459   */\n      mload\n        /* \"#utility.yul\":4440:4459   */\n      swap1\n      pop\n        /* \"#utility.yul\":4390:4465   */\n      swap1\n      jump\t// out\n        /* \"#utility.yul\":4471:4779   */\n    tag_82:\n        /* \"#utility.yul\":4533:4537   */\n      0x00\n        /* \"#utility.yul\":4623:4641   */\n      0xffffffffffffffff\n        /* \"#utility.yul\":4615:4621   */\n      dup3\n        /* \"#utility.yul\":4612:4642   */\n      gt\n        /* \"#utility.yul\":4609:4665   */\n      iszero\n      tag_152\n      jumpi\n        /* \"#utility.yul\":4645:4663   */\n      tag_153\n      tag_154\n      jump\t// in\n    tag_153:\n        /* \"#utility.yul\":4609:4665   */\n    tag_152:\n        /* \"#utility.yul\":4683:4712   */\n      tag_155\n        /* \"#utility.yul\":4705:4711   */\n      dup3\n        /* \"#utility.yul\":4683:4712   */\n      tag_127\n      jump\t// in\n    tag_155:\n        /* \"#utility.yul\":4675:4712   */\n      swap1\n      pop\n        /* \"#utility.yul\":4767:4771   */\n      0x20\n        /* \"#utility.yul\":4761:4765   */\n      dup2\n        /* \"#utility.yul\":4757:4772   */\n      add\n        /* \"#utility.yul\":4749:4772   */\n      swap1\n      pop\n        /* \"#utility.yul\":4471:4779   */\n      swap2\n      swap1\n      pop\n      jump\t// out\n        /* \"#utility.yul\":4785:4884   */\n    tag_121:\n        /* \"#utility.yul\":4837:4843   */\n      0x00\n        /* \"#utility.yul\":4871:4876   */\n      dup2\n        /* \"#utility.yul\":4865:4877   */\n      mload\n        /* \"#utility.yul\":4855:4877   */\n      swap1\n      pop\n        /* \"#utility.yul\":4785:4884   */\n      swap2\n      swap1\n      pop\n      jump\t// out\n        /* \"#utility.yul\":4890:5059   */\n    tag_123:\n        /* \"#utility.yul\":4974:4985   */\n      0x00\n        /* \"#utility.yul\":5008:5014   */\n      dup3\n        /* \"#utility.yul\":5003:5006   */\n      dup3\n        /* \"#utility.yul\":4996:5015   */\n      mstore\n        /* \"#utility.yul\":5048:5052   */\n      0x20\n        /* \"#utility.yul\":5043:5046   */\n      dup3\n        /* \"#utility.yul\":5039:5053   */\n      add\n        /* \"#utility.yul\":5024:5053   */\n      swap1\n      pop\n        /* \"#utility.yul\":4890:5059   */\n      swap3\n      swap2\n      pop\n      pop\n      jump\t// out\n        /* \"#utility.yul\":5065:5213   */\n    tag_132:\n        /* \"#utility.yul\":5167:5178   */\n      0x00\n        /* \"#utility.yul\":5204:5207   */\n      dup2\n        /* \"#utility.yul\":5189:5207   */\n      swap1\n      pop\n        /* \"#utility.yul\":5065:5213   */\n      swap3\n      swap2\n      pop\n      pop\n      jump\t// out\n        /* \"#utility.yul\":5219:5524   */\n    tag_66:\n        /* \"#utility.yul\":5259:5262   */\n      0x00\n        /* \"#utility.yul\":5278:5298   */\n      tag_160\n        /* \"#utility.yul\":5296:5297   */\n      dup3\n        /* \"#utility.yul\":5278:5298   */\n      tag_137\n      jump\t// in\n    tag_160:\n        /* \"#utility.yul\":5273:5298   */\n      swap2\n      pop\n        /* \"#utility.yul\":5312:5332   */\n      tag_161\n        /* \"#utility.yul\":5330:5331   */\n      dup4\n        /* \"#utility.yul\":5312:5332   */\n      tag_137\n      jump\t// in\n    tag_161:\n        /* \"#utility.yul\":5307:5332   */\n      swap3\n      pop\n        /* \"#utility.yul\":5466:5467   */\n      dup3\n        /* \"#utility.yul\":5398:5464   */\n      0xffffffffffffffffffffffffffffffffffffffffffffffffffffffffffffffff\n        /* \"#utility.yul\":5394:5468   */\n      sub\n        /* \"#utility.yul\":5391:5392   */\n      dup3\n        /* \"#utility.yul\":5388:5469   */\n      gt\n        /* \"#utility.yul\":5385:5492   */\n      iszero\n      tag_162\n      jumpi\n        /* \"#utility.yul\":5472:5490   */\n      tag_163\n      tag_164\n      jump\t// in\n    tag_163:\n        /* \"#utility.yul\":5385:5492   */\n    tag_162:\n        /* \"#utility.yul\":5516:5517   */\n      dup3\n        /* \"#utility.yul\":5513:5514   */\n      dup3\n        /* \"#utility.yul\":5509:5518   */\n      add\n        /* \"#utility.yul\":5502:5518   */\n      swap1\n      pop\n        /* \"#utility.yul\":5219:5524   */\n      swap3\n      swap2\n      pop\n      pop\n      jump\t// out\n        /* \"#utility.yul\":5530:5607   */\n    tag_137:\n        /* \"#utility.yul\":5567:5574   */\n      0x00\n        /* \"#utility.yul\":5596:5601   */\n      dup2\n        /* \"#utility.yul\":5585:5601   */\n      swap1\n      pop\n        /* \"#utility.yul\":5530:5607   */\n      swap2\n      swap1\n      pop\n      jump\t// out\n        /* \"#utility.yul\":5613:5767   */\n    tag_88:\n        /* \"#utility.yul\":5697:5703   */\n      dup3\n        /* \"#utility.yul\":5692:5695   */\n      dup2\n        /* \"#utility.yul\":5687:5690   */\n      dup4\n        /* \"#utility.yul\":5674:5704   */\n      calldatacopy\n        /* \"#utility.yul\":5759:5760   */\n      0x00\n        /* \"#utility.yul\":5750:5756   */\n      dup4\n        /* \"#utility.yul\":5745:5748   */\n      dup4\n        /* \"#utility.yul\":5741:5757   */\n      add\n        /* \"#utility.yul\":5734:5761   */\n      mstore\n        /* \"#utility.yul\":5613:5767   */\n      pop\n      pop\n      pop\n      jump\t// out\n        /* \"#utility.yul\":5773:6080   */\n    tag_125:\n        /* \"#utility.yul\":5841:5842   */\n      0x00\n        /* \"#utility.yul\":5851:5964   */\n    tag_168:\n        /* \"#utility.yul\":5865:5871   */\n      dup4\n        /* \"#utility.yul\":5862:5863   */\n      dup2\n        /* \"#utility.yul\":5859:5872   */\n      lt\n        /* \"#utility.yul\":5851:5964   */\n      iszero\n      tag_170\n      jumpi\n        /* \"#utility.yul\":5950:5951   */\n      dup1\n        /* \"#utility.yul\":5945:5948   */\n      dup3\n        /* \"#utility.yul\":5941:5952   */\n      add\n        /* \"#utility.yul\":5935:5953   */\n      mload\n        /* \"#utility.yul\":5931:5932   */\n      dup2\n        /* \"#utility.yul\":5926:5929   */\n      dup5\n        /* \"#utility.yul\":5922:5933   */\n      add\n        /* \"#utility.yul\":5915:5954   */\n      mstore\n        /* \"#utility.yul\":5887:5889   */\n      0x20\n        /* \"#utility.yul\":5884:5885   */\n      dup2\n        /* \"#utility.yul\":5880:5890   */\n      add\n        /* \"#utility.yul\":5875:5890   */\n      swap1\n      pop\n        /* \"#utility.yul\":5851:5964   */\n      jump(tag_168)\n    tag_170:\n        /* \"#utility.yul\":5982:5988   */\n      dup4\n        /* \"#utility.yul\":5979:5980   */\n      dup2\n        /* \"#utility.yul\":5976:5989   */\n      gt\n        /* \"#utility.yul\":5973:6074   */\n      iszero\n      tag_171\n      jumpi\n        /* \"#utility.yul\":6062:6063   */\n      0x00\n        /* \"#utility.yul\":6053:6059   */\n      dup5\n        /* \"#utility.yul\":6048:6051   */\n      dup5\n        /* \"#utility.yul\":6044:6060   */\n      add\n        /* \"#utility.yul\":6037:6064   */\n      mstore\n        /* \"#utility.yul\":5973:6074   */\n    tag_171:\n        /* \"#utility.yul\":5822:6080   */\n      pop\n        /* \"#utility.yul\":5773:6080   */\n      pop\n      pop\n      pop\n      jump\t// out\n        /* \"#utility.yul\":6086:6406   */\n    tag_44:\n        /* \"#utility.yul\":6130:6136   */\n      0x00\n        /* \"#utility.yul\":6167:6168   */\n      0x02\n        /* \"#utility.yul\":6161:6165   */\n      dup3\n        /* \"#utility.yul\":6157:6169   */\n      div\n        /* \"#utility.yul\":6147:6169   */\n      swap1\n      pop\n        /* \"#utility.yul\":6214:6215   */\n      0x01\n        /* \"#utility.yul\":6208:6212   */\n      dup3\n        /* \"#utility.yul\":6204:6216   */\n      and\n        /* \"#utility.yul\":6235:6253   */\n      dup1\n        /* \"#utility.yul\":6225:6306   */\n      tag_173\n      jumpi\n        /* \"#utility.yul\":6291:6295   */\n      0x7f\n        /* \"#utility.yul\":6283:6289   */\n      dup3\n        /* \"#utility.yul\":6279:6296   */\n      and\n        /* \"#utility.yul\":6269:6296   */\n      swap2\n      pop\n        /* \"#utility.yul\":6225:6306   */\n    tag_173:\n        /* \"#utility.yul\":6353:6355   */\n      0x20\n        /* \"#utility.yul\":6345:6351   */\n      dup3\n        /* \"#utility.yul\":6342:6356   */\n      lt\n        /* \"#utility.yul\":6322:6340   */\n      dup2\n        /* \"#utility.yul\":6319:6357   */\n      eq\n        /* \"#utility.yul\":6316:6400   */\n      iszero\n      tag_174\n      jumpi\n        /* \"#utility.yul\":6372:6390   */\n      tag_175\n      tag_176\n      jump\t// in\n    tag_175:\n        /* \"#utility.yul\":6316:6400   */\n    tag_174:\n        /* \"#utility.yul\":6137:6406   */\n      pop\n        /* \"#utility.yul\":6086:6406   */\n      swap2\n      swap1\n      pop\n      jump\t// out\n        /* \"#utility.yul\":6412:6693   */\n    tag_149:\n        /* \"#utility.yul\":6495:6522   */\n      tag_178\n        /* \"#utility.yul\":6517:6521   */\n      dup3\n        /* \"#utility.yul\":6495:6522   */\n      tag_127\n      jump\t// in\n    tag_178:\n        /* \"#utility.yul\":6487:6493   */\n      dup2\n        /* \"#utility.yul\":6483:6523   */\n      add\n        /* \"#utility.yul\":6625:6631   */\n      dup2\n        /* \"#utility.yul\":6613:6623   */\n      dup2\n        /* \"#utility.yul\":6610:6632   */\n      lt\n        /* \"#utility.yul\":6589:6607   */\n      0xffffffffffffffff\n        /* \"#utility.yul\":6577:6587   */\n      dup3\n        /* \"#utility.yul\":6574:6608   */\n      gt\n        /* \"#utility.yul\":6571:6633   */\n      or\n        /* \"#utility.yul\":6568:6656   */\n      iszero\n      tag_179\n      jumpi\n        /* \"#utility.yul\":6636:6654   */\n      tag_180\n      tag_154\n      jump\t// in\n    tag_180:\n        /* \"#utility.yul\":6568:6656   */\n    tag_179:\n        /* \"#utility.yul\":6676:6686   */\n      dup1\n        /* \"#utility.yul\":6672:6674   */\n      0x40\n        /* \"#utility.yul\":6665:6687   */\n      mstore\n        /* \"#utility.yul\":6455:6693   */\n      pop\n        /* \"#utility.yul\":6412:6693   */\n      pop\n      pop\n      jump\t// out\n        /* \"#utility.yul\":6699:6879   */\n    tag_164:\n        /* \"#utility.yul\":6747:6824   */\n      0x4e487b7100000000000000000000000000000000000000000000000000000000\n        /* \"#utility.yul\":6744:6745   */\n      0x00\n        /* \"#utility.yul\":6737:6825   */\n      mstore\n        /* \"#utility.yul\":6844:6848   */\n      0x11\n        /* \"#utility.yul\":6841:6842   */\n      0x04\n        /* \"#utility.yul\":6834:6849   */\n      mstore\n        /* \"#utility.yul\":6868:6872   */\n      0x24\n        /* \"#utility.yul\":6865:6866   */\n      0x00\n        /* \"#utility.yul\":6858:6873   */\n      revert\n        /* \"#utility.yul\":6885:7065   */\n    tag_176:\n        /* \"#utility.yul\":6933:7010   */\n      0x4e487b7100000000000000000000000000000000000000000000000000000000\n        /* \"#utility.yul\":6930:6931   */\n      0x00\n        /* \"#utility.yul\":6923:7011   */\n      mstore\n        /* \"#utility.yul\":7030:7034   */\n      0x22\n        /* \"#utility.yul\":7027:7028   */\n      0x04\n        /* \"#utility.yul\":7020:7035   */\n      mstore\n        /* \"#utility.yul\":7054:7058   */\n      0x24\n        /* \"#utility.yul\":7051:7052   */\n      0x00\n        /* \"#utility.yul\":7044:7059   */\n      revert\n        /* \"#utility.yul\":7071:7251   */\n    tag_154:\n        /* \"#utility.yul\":7119:7196   */\n      0x4e487b7100000000000000000000000000000000000000000000000000000000\n        /* \"#utility.yul\":7116:7117   */\n      0x00\n        /* \"#utility.yul\":7109:7197   */\n      mstore\n        /* \"#utility.yul\":7216:7220   */\n      0x41\n        /* \"#utility.yul\":7213:7214   */\n      0x04\n        /* \"#utility.yul\":7206:7221   */\n      mstore\n        /* \"#utility.yul\":7240:7244   */\n      0x24\n        /* \"#utility.yul\":7237:7238   */\n      0x00\n        /* \"#utility.yul\":7230:7245   */\n      revert\n        /* \"#utility.yul\":7257:7374   */\n    tag_93:\n        /* \"#utility.yul\":7366:7367   */\n      0x00\n        /* \"#utility.yul\":7363:7364   */\n      dup1\n        /* \"#utility.yul\":7356:7368   */\n      revert\n        /* \"#utility.yul\":7380:7497   */\n    tag_86:\n        /* \"#utility.yul\":7489:7490   */\n      0x00\n        /* \"#utility.yul\":7486:7487   */\n      dup1\n        /* \"#utility.yul\":7479:7491   */\n      revert\n        /* \"#utility.yul\":7503:7620   */\n    tag_105:\n        /* \"#utility.yul\":7612:7613   */\n      0x00\n        /* \"#utility.yul\":7609:7610   */\n      dup1\n        /* \"#utility.yul\":7602:7614   */\n      revert\n        /* \"#utility.yul\":7626:7743   */\n    tag_102:\n        /* \"#utility.yul\":7735:7736   */\n      0x00\n        /* \"#utility.yul\":7732:7733   */\n      dup1\n        /* \"#utility.yul\":7725:7737   */\n      revert\n        /* \"#utility.yul\":7749:7851   */\n    tag_127:\n        /* \"#utility.yul\":7790:7796   */\n      0x00\n        /* \"#utility.yul\":7841:7843   */\n      0x1f\n        /* \"#utility.yul\":7837:7844   */\n      not\n        /* \"#utility.yul\":7832:7834   */\n      0x1f\n        /* \"#utility.yul\":7825:7830   */\n      dup4\n        /* \"#utility.yul\":7821:7835   */\n      add\n        /* \"#utility.yul\":7817:7845   */\n      and\n        /* \"#utility.yul\":7807:7845   */\n      swap1\n      pop\n        /* \"#utility.yul\":7749:7851   */\n      swap2\n      swap1\n      pop\n      jump\t// out\n        /* \"#utility.yul\":7857:7979   */\n    tag_98:\n        /* \"#utility.yul\":7930:7954   */\n      tag_190\n        /* \"#utility.yul\":7948:7953   */\n      dup2\n        /* \"#utility.yul\":7930:7954   */\n      tag_137\n      jump\t// in\n    tag_190:\n        /* \"#utility.yul\":7923:7928   */\n      dup2\n        /* \"#utility.yul\":7920:7955   */\n      eq\n        /* \"#utility.yul\":7910:7973   */\n      tag_191\n      jumpi\n        /* \"#utility.yul\":7969:7970   */\n      0x00\n        /* \"#utility.yul\":7966:7967   */\n      dup1\n        /* \"#utility.yul\":7959:7971   */\n      revert\n        /* \"#utility.yul\":7910:7973   */\n    tag_191:\n        /* \"#utility.yul\":7857:7979   */\n      pop\n      jump\t// out\n\n    auxdata: 0xa26469706673582212208d5697def5427c11426cf92ee10c902529304a5e79484cf0e58097a29331f70464736f6c63430008070033\n}\n",
				"bytecode": {
					"linkReferences": {},
					"object": "60806040526040518060400160405280600781526020016040518060400160405280600481526020017f5861766900000000000000000000000000000000000000000000000000000000815250815250600360008201518160000155602082015181600101908051906020019061007792919061008c565b50505034801561008657600080fd5b50610190565b8280546100989061012f565b90600052602060002090601f0160209004810192826100ba5760008555610101565b82601f106100d357805160ff1916838001178555610101565b82800160010185558215610101579182015b828111156101005782518255916020019190600101906100e5565b5b50905061010e9190610112565b5090565b5b8082111561012b576000816000905550600101610113565b5090565b6000600282049050600182168061014757607f821691505b6020821081141561015b5761015a610161565b5b50919050565b7f4e487b7100000000000000000000000000000000000000000000000000000000600052602260045260246000fd5b6109308061019f6000396000f3fe608060405234801561001057600080fd5b50600436106100885760003560e01c806390ea423b1161005b57806390ea423b146101025780639e7a13ad14610120578063b9c03b9a14610151578063d6dea1301461016d57610088565b80630ee28e371461008d5780632e64cec1146100ac5780636057361d146100ca5780636f760f41146100e6575b600080fd5b61009561019d565b6040516100a392919061067f565b60405180910390f35b6100b4610237565b6040516100c19190610664565b60405180910390f35b6100e460048036038101906100df91906105a7565b610240565b005b61010060048036038101906100fb919061054b565b61024a565b005b61010a6102da565b6040516101179190610664565b60405180910390f35b61013a600480360381019061013591906105a7565b6102e0565b60405161014892919061067f565b60405180910390f35b61016b600480360381019061016691906105a7565b61039c565b005b61018760048036038101906101829190610502565b6103ac565b6040516101949190610664565b60405180910390f35b60038060000154908060010180546101b4906107ce565b80601f01602080910402602001604051908101604052809291908181526020018280546101e0906107ce565b801561022d5780601f106102025761010080835404028352916020019161022d565b820191906000526020600020905b81548152906001019060200180831161021057829003601f168201915b5050505050905082565b60008054905090565b8060008190555050565b600260405180604001604052808381526020018481525090806001815401808255809150506001900390600052602060002090600202016000909190919091506000820151816000015560208201518160010190805190602001906102b09291906103da565b505050806001836040516102c4919061064d565b9081526020016040518091039020819055505050565b60005481565b600281815481106102f057600080fd5b9060005260206000209060020201600091509050806000015490806001018054610319906107ce565b80601f0160208091040260200160405190810160405280929190818152602001828054610345906107ce565b80156103925780601f1061036757610100808354040283529160200191610392565b820191906000526020600020905b81548152906001019060200180831161037557829003601f168201915b5050505050905082565b80816103a8919061072c565b5050565b6001818051602081018201805184825260208301602085012081835280955050505050506000915090505481565b8280546103e6906107ce565b90600052602060002090601f016020900481019282610408576000855561044f565b82601f1061042157805160ff191683800117855561044f565b8280016001018555821561044f579182015b8281111561044e578251825591602001919060010190610433565b5b50905061045c9190610460565b5090565b5b80821115610479576000816000905550600101610461565b5090565b600061049061048b846106d4565b6106af565b9050828152602081018484840111156104ac576104ab6108c3565b5b6104b784828561078c565b509392505050565b600082601f8301126104d4576104d36108be565b5b81356104e484826020860161047d565b91505092915050565b6000813590506104fc816108e3565b92915050565b600060208284031215610518576105176108cd565b5b600082013567ffffffffffffffff811115610536576105356108c8565b5b610542848285016104bf565b91505092915050565b60008060408385031215610562576105616108cd565b5b600083013567ffffffffffffffff8111156105805761057f6108c8565b5b61058c858286016104bf565b925050602061059d858286016104ed565b9150509250929050565b6000602082840312156105bd576105bc6108cd565b5b60006105cb848285016104ed565b91505092915050565b60006105df82610705565b6105e98185610710565b93506105f981856020860161079b565b610602816108d2565b840191505092915050565b600061061882610705565b6106228185610721565b935061063281856020860161079b565b80840191505092915050565b61064781610782565b82525050565b6000610659828461060d565b915081905092915050565b6000602082019050610679600083018461063e565b92915050565b6000604082019050610694600083018561063e565b81810360208301526106a681846105d4565b90509392505050565b60006106b96106ca565b90506106c58282610800565b919050565b6000604051905090565b600067ffffffffffffffff8211156106ef576106ee61088f565b5b6106f8826108d2565b9050602081019050919050565b600081519050919050565b600082825260208201905092915050565b600081905092915050565b600061073782610782565b915061074283610782565b9250827fffffffffffffffffffffffffffffffffffffffffffffffffffffffffffffffff0382111561077757610776610831565b5b828201905092915050565b6000819050919050565b82818337600083830152505050565b60005b838110156107b957808201518184015260208101905061079e565b838111156107c8576000848401525b50505050565b600060028204905060018216806107e657607f821691505b602082108114156107fa576107f9610860565b5b50919050565b610809826108d2565b810181811067ffffffffffffffff821117156108285761082761088f565b5b80604052505050565b7f4e487b7100000000000000000000000000000000000000000000000000000000600052601160045260246000fd5b7f4e487b7100000000000000000000000000000000000000000000000000000000600052602260045260246000fd5b7f4e487b7100000000000000000000000000000000000000000000000000000000600052604160045260246000fd5b600080fd5b600080fd5b600080fd5b600080fd5b6000601f19601f8301169050919050565b6108ec81610782565b81146108f757600080fd5b5056fea26469706673582212208d5697def5427c11426cf92ee10c902529304a5e79484cf0e58097a29331f70464736f6c63430008070033",
					"opcodes": "PUSH1 0x80 PUSH1 0x40 MSTORE PUSH1 0x40 MLOAD DUP1 PUSH1 0x40 ADD PUSH1 0x40 MSTORE DUP1 PUSH1 0x7 DUP2 MSTORE PUSH1 0x20 ADD PUSH1 0x40 MLOAD DUP1 PUSH1 0x40 ADD PUSH1 0x40 MSTORE DUP1 PUSH1 0x4 DUP2 MSTORE PUSH1 0x20 ADD PUSH32 0x5861766900000000000000000000000000000000000000000000000000000000 DUP2 MSTORE POP DUP2 MSTORE POP PUSH1 0x3 PUSH1 0x0 DUP3 ADD MLOAD DUP2 PUSH1 0x0 ADD SSTORE PUSH1 0x20 DUP3 ADD MLOAD DUP2 PUSH1 0x1 ADD SWAP1 DUP1 MLOAD SWAP1 PUSH1 0x20 ADD SWAP1 PUSH2 0x77 SWAP3 SWAP2 SWAP1 PUSH2 0x8C JUMP JUMPDEST POP POP POP CALLVALUE DUP1 ISZERO PUSH2 0x86 JUMPI PUSH1 0x0 DUP1 REVERT JUMPDEST POP PUSH2 0x190 JUMP JUMPDEST DUP3 DUP1 SLOAD PUSH2 0x98 SWAP1 PUSH2 0x12F JUMP JUMPDEST SWAP1 PUSH1 0x0 MSTORE PUSH1 0x20 PUSH1 0x0 KECCAK256 SWAP1 PUSH1 0x1F ADD PUSH1 0x20 SWAP1 DIV DUP2 ADD SWAP3 DUP3 PUSH2 0xBA JUMPI PUSH1 0x0 DUP6 SSTORE PUSH2 0x101 JUMP JUMPDEST DUP3 PUSH1 0x1F LT PUSH2 0xD3 JUMPI DUP1 MLOAD PUSH1 0xFF NOT AND DUP4 DUP1 ADD OR DUP6 SSTORE PUSH2 0x101 JUMP JUMPDEST DUP3 DUP1 ADD PUSH1 0x1 ADD DUP6 SSTORE DUP3 ISZERO PUSH2 0x101 JUMPI SWAP2 DUP3 ADD JUMPDEST DUP3 DUP2 GT ISZERO PUSH2 0x100 JUMPI DUP3 MLOAD DUP3 SSTORE SWAP2 PUSH1 0x20 ADD SWAP2 SWAP1 PUSH1 0x1 ADD SWAP1 PUSH2 0xE5 JUMP JUMPDEST JUMPDEST POP SWAP1 POP PUSH2 0x10E SWAP2 SWAP1 PUSH2 0x112 JUMP JUMPDEST POP SWAP1 JUMP JUMPDEST JUMPDEST DUP1 DUP3 GT ISZERO PUSH2 0x12B JUMPI PUSH1 0x0 DUP2 PUSH1 0x0 SWAP1 SSTORE POP PUSH1 0x1 ADD PUSH2 0x113 JUMP JUMPDEST POP SWAP1 JUMP JUMPDEST PUSH1 0x0 PUSH1 0x2 DUP3 DIV SWAP1 POP PUSH1 0x1 DUP3 AND DUP1 PUSH2 0x147 JUMPI PUSH1 0x7F DUP3 AND SWAP2 POP JUMPDEST PUSH1 0x20 DUP3 LT DUP2 EQ ISZERO PUSH2 0x15B JUMPI PUSH2 0x15A PUSH2 0x161 JUMP JUMPDEST JUMPDEST POP SWAP2 SWAP1 POP JUMP JUMPDEST PUSH32 0x4E487B7100000000000000000000000000000000000000000000000000000000 PUSH1 0x0 MSTORE PUSH1 0x22 PUSH1 0x4 MSTORE PUSH1 0x24 PUSH1 0x0 REVERT JUMPDEST PUSH2 0x930 DUP1 PUSH2 0x19F PUSH1 0x0 CODECOPY PUSH1 0x0 RETURN INVALID PUSH1 0x80 PUSH1 0x40 MSTORE CALLVALUE DUP1 ISZERO PUSH2 0x10 JUMPI PUSH1 0x0 DUP1 REVERT JUMPDEST POP PUSH1 0x4 CALLDATASIZE LT PUSH2 0x88 JUMPI PUSH1 0x0 CALLDATALOAD PUSH1 0xE0 SHR DUP1 PUSH4 0x90EA423B GT PUSH2 0x5B JUMPI DUP1 PUSH4 0x90EA423B EQ PUSH2 0x102 JUMPI DUP1 PUSH4 0x9E7A13AD EQ PUSH2 0x120 JUMPI DUP1 PUSH4 0xB9C03B9A EQ PUSH2 0x151 JUMPI DUP1 PUSH4 0xD6DEA130 EQ PUSH2 0x16D JUMPI PUSH2 0x88 JUMP JUMPDEST DUP1 PUSH4 0xEE28E37 EQ PUSH2 0x8D JUMPI DUP1 PUSH4 0x2E64CEC1 EQ PUSH2 0xAC JUMPI DUP1 PUSH4 0x6057361D EQ PUSH2 0xCA JUMPI DUP1 PUSH4 0x6F760F41 EQ PUSH2 0xE6 JUMPI JUMPDEST PUSH1 0x0 DUP1 REVERT JUMPDEST PUSH2 0x95 PUSH2 0x19D JUMP JUMPDEST PUSH1 0x40 MLOAD PUSH2 0xA3 SWAP3 SWAP2 SWAP1 PUSH2 0x67F JUMP JUMPDEST PUSH1 0x40 MLOAD DUP1 SWAP2 SUB SWAP1 RETURN JUMPDEST PUSH2 0xB4 PUSH2 0x237 JUMP JUMPDEST PUSH1 0x40 MLOAD PUSH2 0xC1 SWAP2 SWAP1 PUSH2 0x664 JUMP JUMPDEST PUSH1 0x40 MLOAD DUP1 SWAP2 SUB SWAP1 RETURN JUMPDEST PUSH2 0xE4 PUSH1 0x4 DUP1 CALLDATASIZE SUB DUP2 ADD SWAP1 PUSH2 0xDF SWAP2 SWAP1 PUSH2 0x5A7 JUMP JUMPDEST PUSH2 0x240 JUMP JUMPDEST STOP JUMPDEST PUSH2 0x100 PUSH1 0x4 DUP1 CALLDATASIZE SUB DUP2 ADD SWAP1 PUSH2 0xFB SWAP2 SWAP1 PUSH2 0x54B JUMP JUMPDEST PUSH2 0x24A JUMP JUMPDEST STOP JUMPDEST PUSH2 0x10A PUSH2 0x2DA JUMP JUMPDEST PUSH1 0x40 MLOAD PUSH2 0x117 SWAP2 SWAP1 PUSH2 0x664 JUMP JUMPDEST PUSH1 0x40 MLOAD DUP1 SWAP2 SUB SWAP1 RETURN JUMPDEST PUSH2 0x13A PUSH1 0x4 DUP1 CALLDATASIZE SUB DUP2 ADD SWAP1 PUSH2 0x135 SWAP2 SWAP1 PUSH2 0x5A7 JUMP JUMPDEST PUSH2 0x2E0 JUMP JUMPDEST PUSH1 0x40 MLOAD PUSH2 0x148 SWAP3 SWAP2 SWAP1 PUSH2 0x67F JUMP JUMPDEST PUSH1 0x40 MLOAD DUP1 SWAP2 SUB SWAP1 RETURN JUMPDEST PUSH2 0x16B PUSH1 0x4 DUP1 CALLDATASIZE SUB DUP2 ADD SWAP1 PUSH2 0x166 SWAP2 SWAP1 PUSH2 0x5A7 JUMP JUMPDEST PUSH2 0x39C JUMP JUMPDEST STOP JUMPDEST PUSH2 0x187 PUSH1 0x4 DUP1 CALLDATASIZE SUB DUP2 ADD SWAP1 PUSH2 0x182 SWAP2 SWAP1 PUSH2 0x502 JUMP JUMPDEST PUSH2 0x3AC JUMP JUMPDEST PUSH1 0x40 MLOAD PUSH2 0x194 SWAP2 SWAP1 PUSH2 0x664 JUMP JUMPDEST PUSH1 0x40 MLOAD DUP1 SWAP2 SUB SWAP1 RETURN JUMPDEST PUSH1 0x3 DUP1 PUSH1 0x0 ADD SLOAD SWAP1 DUP1 PUSH1 0x1 ADD DUP1 SLOAD PUSH2 0x1B4 SWAP1 PUSH2 0x7CE JUMP JUMPDEST DUP1 PUSH1 0x1F ADD PUSH1 0x20 DUP1 SWAP2 DIV MUL PUSH1 0x20 ADD PUSH1 0x40 MLOAD SWAP1 DUP2 ADD PUSH1 0x40 MSTORE DUP1 SWAP3 SWAP2 SWAP1 DUP2 DUP2 MSTORE PUSH1 0x20 ADD DUP3 DUP1 SLOAD PUSH2 0x1E0 SWAP1 PUSH2 0x7CE JUMP JUMPDEST DUP1 ISZERO PUSH2 0x22D JUMPI DUP1 PUSH1 0x1F LT PUSH2 0x202 JUMPI PUSH2 0x100 DUP1 DUP4 SLOAD DIV MUL DUP4 MSTORE SWAP2 PUSH1 0x20 ADD SWAP2 PUSH2 0x22D JUMP JUMPDEST DUP3 ADD SWAP2 SWAP1 PUSH1 0x0 MSTORE PUSH1 0x20 PUSH1 0x0 KECCAK256 SWAP1 JUMPDEST DUP2 SLOAD DUP2 MSTORE SWAP1 PUSH1 0x1 ADD SWAP1 PUSH1 0x20 ADD DUP1 DUP4 GT PUSH2 0x210 JUMPI DUP3 SWAP1 SUB PUSH1 0x1F AND DUP3 ADD SWAP2 JUMPDEST POP POP POP POP POP SWAP1 POP DUP3 JUMP JUMPDEST PUSH1 0x0 DUP1 SLOAD SWAP1 POP SWAP1 JUMP JUMPDEST DUP1 PUSH1 0x0 DUP2 SWAP1 SSTORE POP POP JUMP JUMPDEST PUSH1 0x2 PUSH1 0x40 MLOAD DUP1 PUSH1 0x40 ADD PUSH1 0x40 MSTORE DUP1 DUP4 DUP2 MSTORE PUSH1 0x20 ADD DUP5 DUP2 MSTORE POP SWAP1 DUP1 PUSH1 0x1 DUP2 SLOAD ADD DUP1 DUP3 SSTORE DUP1 SWAP2 POP POP PUSH1 0x1 SWAP1 SUB SWAP1 PUSH1 0x0 MSTORE PUSH1 0x20 PUSH1 0x0 KECCAK256 SWAP1 PUSH1 0x2 MUL ADD PUSH1 0x0 SWAP1 SWAP2 SWAP1 SWAP2 SWAP1 SWAP2 POP PUSH1 0x0 DUP3 ADD MLOAD DUP2 PUSH1 0x0 ADD SSTORE PUSH1 0x20 DUP3 ADD MLOAD DUP2 PUSH1 0x1 ADD SWAP1 DUP1 MLOAD SWAP1 PUSH1 0x20 ADD SWAP1 PUSH2 0x2B0 SWAP3 SWAP2 SWAP1 PUSH2 0x3DA JUMP JUMPDEST POP POP POP DUP1 PUSH1 0x1 DUP4 PUSH1 0x40 MLOAD PUSH2 0x2C4 SWAP2 SWAP1 PUSH2 0x64D JUMP JUMPDEST SWAP1 DUP2 MSTORE PUSH1 0x20 ADD PUSH1 0x40 MLOAD DUP1 SWAP2 SUB SWAP1 KECCAK256 DUP2 SWAP1 SSTORE POP POP POP JUMP JUMPDEST PUSH1 0x0 SLOAD DUP2 JUMP JUMPDEST PUSH1 0x2 DUP2 DUP2 SLOAD DUP2 LT PUSH2 0x2F0 JUMPI PUSH1 0x0 DUP1 REVERT JUMPDEST SWAP1 PUSH1 0x0 MSTORE PUSH1 0x20 PUSH1 0x0 KECCAK256 SWAP1 PUSH1 0x2 MUL ADD PUSH1 0x0 SWAP2 POP SWAP1 POP DUP1 PUSH1 0x0 ADD SLOAD SWAP1 DUP1 PUSH1 0x1 ADD DUP1 SLOAD PUSH2 0x319 SWAP1 PUSH2 0x7CE JUMP JUMPDEST DUP1 PUSH1 0x1F ADD PUSH1 0x20 DUP1 SWAP2 DIV MUL PUSH1 0x20 ADD PUSH1 0x40 MLOAD SWAP1 DUP2 ADD PUSH1 0x40 MSTORE DUP1 SWAP3 SWAP2 SWAP1 DUP2 DUP2 MSTORE PUSH1 0x20 ADD DUP3 DUP1 SLOAD PUSH2 0x345 SWAP1 PUSH2 0x7CE JUMP JUMPDEST DUP1 ISZERO PUSH2 0x392 JUMPI DUP1 PUSH1 0x1F LT PUSH2 0x367 JUMPI PUSH2 0x100 DUP1 DUP4 SLOAD DIV MUL DUP4 MSTORE SWAP2 PUSH1 0x20 ADD SWAP2 PUSH2 0x392 JUMP JUMPDEST DUP3 ADD SWAP2 SWAP1 PUSH1 0x0 MSTORE PUSH1 0x20 PUSH1 0x0 KECCAK256 SWAP1 JUMPDEST DUP2 SLOAD DUP2 MSTORE SWAP1 PUSH1 0x1 ADD SWAP1 PUSH1 0x20 ADD DUP1 DUP4 GT PUSH2 0x375 JUMPI DUP3 SWAP1 SUB PUSH1 0x1F AND DUP3 ADD SWAP2 JUMPDEST POP POP POP POP POP SWAP1 POP DUP3 JUMP JUMPDEST DUP1 DUP2 PUSH2 0x3A8 SWAP2 SWAP1 PUSH2 0x72C JUMP JUMPDEST POP POP JUMP JUMPDEST PUSH1 0x1 DUP2 DUP1 MLOAD PUSH1 0x20 DUP2 ADD DUP3 ADD DUP1 MLOAD DUP5 DUP3 MSTORE PUSH1 0x20 DUP4 ADD PUSH1 0x20 DUP6 ADD KECCAK256 DUP2 DUP4 MSTORE DUP1 SWAP6 POP POP POP POP POP POP PUSH1 0x0 SWAP2 POP SWAP1 POP SLOAD DUP2 JUMP JUMPDEST DUP3 DUP1 SLOAD PUSH2 0x3E6 SWAP1 PUSH2 0x7CE JUMP JUMPDEST SWAP1 PUSH1 0x0 MSTORE PUSH1 0x20 PUSH1 0x0 KECCAK256 SWAP1 PUSH1 0x1F ADD PUSH1 0x20 SWAP1 DIV DUP2 ADD SWAP3 DUP3 PUSH2 0x408 JUMPI PUSH1 0x0 DUP6 SSTORE PUSH2 0x44F JUMP JUMPDEST DUP3 PUSH1 0x1F LT PUSH2 0x421 JUMPI DUP1 MLOAD PUSH1 0xFF NOT AND DUP4 DUP1 ADD OR DUP6 SSTORE PUSH2 0x44F JUMP JUMPDEST DUP3 DUP1 ADD PUSH1 0x1 ADD DUP6 SSTORE DUP3 ISZERO PUSH2 0x44F JUMPI SWAP2 DUP3 ADD JUMPDEST DUP3 DUP2 GT ISZERO PUSH2 0x44E JUMPI DUP3 MLOAD DUP3 SSTORE SWAP2 PUSH1 0x20 ADD SWAP2 SWAP1 PUSH1 0x1 ADD SWAP1 PUSH2 0x433 JUMP JUMPDEST JUMPDEST POP SWAP1 POP PUSH2 0x45C SWAP2 SWAP1 PUSH2 0x460 JUMP JUMPDEST POP SWAP1 JUMP JUMPDEST JUMPDEST DUP1 DUP3 GT ISZERO PUSH2 0x479 JUMPI PUSH1 0x0 DUP2 PUSH1 0x0 SWAP1 SSTORE POP PUSH1 0x1 ADD PUSH2 0x461 JUMP JUMPDEST POP SWAP1 JUMP JUMPDEST PUSH1 0x0 PUSH2 0x490 PUSH2 0x48B DUP5 PUSH2 0x6D4 JUMP JUMPDEST PUSH2 0x6AF JUMP JUMPDEST SWAP1 POP DUP3 DUP2 MSTORE PUSH1 0x20 DUP2 ADD DUP5 DUP5 DUP5 ADD GT ISZERO PUSH2 0x4AC JUMPI PUSH2 0x4AB PUSH2 0x8C3 JUMP JUMPDEST JUMPDEST PUSH2 0x4B7 DUP5 DUP3 DUP6 PUSH2 0x78C JUMP JUMPDEST POP SWAP4 SWAP3 POP POP POP JUMP JUMPDEST PUSH1 0x0 DUP3 PUSH1 0x1F DUP4 ADD SLT PUSH2 0x4D4 JUMPI PUSH2 0x4D3 PUSH2 0x8BE JUMP JUMPDEST JUMPDEST DUP2 CALLDATALOAD PUSH2 0x4E4 DUP5 DUP3 PUSH1 0x20 DUP7 ADD PUSH2 0x47D JUMP JUMPDEST SWAP2 POP POP SWAP3 SWAP2 POP POP JUMP JUMPDEST PUSH1 0x0 DUP2 CALLDATALOAD SWAP1 POP PUSH2 0x4FC DUP2 PUSH2 0x8E3 JUMP JUMPDEST SWAP3 SWAP2 POP POP JUMP JUMPDEST PUSH1 0x0 PUSH1 0x20 DUP3 DUP5 SUB SLT ISZERO PUSH2 0x518 JUMPI PUSH2 0x517 PUSH2 0x8CD JUMP JUMPDEST JUMPDEST PUSH1 0x0 DUP3 ADD CALLDATALOAD PUSH8 0xFFFFFFFFFFFFFFFF DUP2 GT ISZERO PUSH2 0x536 JUMPI PUSH2 0x535 PUSH2 0x8C8 JUMP JUMPDEST JUMPDEST PUSH2 0x542 DUP5 DUP3 DUP6 ADD PUSH2 0x4BF JUMP JUMPDEST SWAP2 POP POP SWAP3 SWAP2 POP POP JUMP JUMPDEST PUSH1 0x0 DUP1 PUSH1 0x40 DUP4 DUP6 SUB SLT ISZERO PUSH2 0x562 JUMPI PUSH2 0x561 PUSH2 0x8CD JUMP JUMPDEST JUMPDEST PUSH1 0x0 DUP4 ADD CALLDATALOAD PUSH8 0xFFFFFFFFFFFFFFFF DUP2 GT ISZERO PUSH2 0x580 JUMPI PUSH2 0x57F PUSH2 0x8C8 JUMP JUMPDEST JUMPDEST PUSH2 0x58C DUP6 DUP3 DUP7 ADD PUSH2 0x4BF JUMP JUMPDEST SWAP3 POP POP PUSH1 0x20 PUSH2 0x59D DUP6 DUP3 DUP7 ADD PUSH2 0x4ED JUMP JUMPDEST SWAP2 POP POP SWAP3 POP SWAP3 SWAP1 POP JUMP JUMPDEST PUSH1 0x0 PUSH1 0x20 DUP3 DUP5 SUB SLT ISZERO PUSH2 0x5BD JUMPI PUSH2 0x5BC PUSH2 0x8CD JUMP JUMPDEST JUMPDEST PUSH1 0x0 PUSH2 0x5CB DUP5 DUP3 DUP6 ADD PUSH2 0x4ED JUMP JUMPDEST SWAP2 POP POP SWAP3 SWAP2 POP POP JUMP JUMPDEST PUSH1 0x0 PUSH2 0x5DF DUP3 PUSH2 0x705 JUMP JUMPDEST PUSH2 0x5E9 DUP2 DUP6 PUSH2 0x710 JUMP JUMPDEST SWAP4 POP PUSH2 0x5F9 DUP2 DUP6 PUSH1 0x20 DUP7 ADD PUSH2 0x79B JUMP JUMPDEST PUSH2 0x602 DUP2 PUSH2 0x8D2 JUMP JUMPDEST DUP5 ADD SWAP2 POP POP SWAP3 SWAP2 POP POP JUMP JUMPDEST PUSH1 0x0 PUSH2 0x618 DUP3 PUSH2 0x705 JUMP JUMPDEST PUSH2 0x622 DUP2 DUP6 PUSH2 0x721 JUMP JUMPDEST SWAP4 POP PUSH2 0x632 DUP2 DUP6 PUSH1 0x20 DUP7 ADD PUSH2 0x79B JUMP JUMPDEST DUP1 DUP5 ADD SWAP2 POP POP SWAP3 SWAP2 POP POP JUMP JUMPDEST PUSH2 0x647 DUP2 PUSH2 0x782 JUMP JUMPDEST DUP3 MSTORE POP POP JUMP JUMPDEST PUSH1 0x0 PUSH2 0x659 DUP3 DUP5 PUSH2 0x60D JUMP JUMPDEST SWAP2 POP DUP2 SWAP1 POP SWAP3 SWAP2 POP POP JUMP JUMPDEST PUSH1 0x0 PUSH1 0x20 DUP3 ADD SWAP1 POP PUSH2 0x679 PUSH1 0x0 DUP4 ADD DUP5 PUSH2 0x63E JUMP JUMPDEST SWAP3 SWAP2 POP POP JUMP JUMPDEST PUSH1 0x0 PUSH1 0x40 DUP3 ADD SWAP1 POP PUSH2 0x694 PUSH1 0x0 DUP4 ADD DUP6 PUSH2 0x63E JUMP JUMPDEST DUP2 DUP2 SUB PUSH1 0x20 DUP4 ADD MSTORE PUSH2 0x6A6 DUP2 DUP5 PUSH2 0x5D4 JUMP JUMPDEST SWAP1 POP SWAP4 SWAP3 POP POP POP JUMP JUMPDEST PUSH1 0x0 PUSH2 0x6B9 PUSH2 0x6CA JUMP JUMPDEST SWAP1 POP PUSH2 0x6C5 DUP3 DUP3 PUSH2 0x800 JUMP JUMPDEST SWAP2 SWAP1 POP JUMP JUMPDEST PUSH1 0x0 PUSH1 0x40 MLOAD SWAP1 POP SWAP1 JUMP JUMPDEST PUSH1 0x0 PUSH8 0xFFFFFFFFFFFFFFFF DUP3 GT ISZERO PUSH2 0x6EF JUMPI PUSH2 0x6EE PUSH2 0x88F JUMP JUMPDEST JUMPDEST PUSH2 0x6F8 DUP3 PUSH2 0x8D2 JUMP JUMPDEST SWAP1 POP PUSH1 0x20 DUP2 ADD SWAP1 POP SWAP2 SWAP1 POP JUMP JUMPDEST PUSH1 0x0 DUP2 MLOAD SWAP1 POP SWAP2 SWAP1 POP JUMP JUMPDEST PUSH1 0x0 DUP3 DUP3 MSTORE PUSH1 0x20 DUP3 ADD SWAP1 POP SWAP3 SWAP2 POP POP JUMP JUMPDEST PUSH1 0x0 DUP2 SWAP1 POP SWAP3 SWAP2 POP POP JUMP JUMPDEST PUSH1 0x0 PUSH2 0x737 DUP3 PUSH2 0x782 JUMP JUMPDEST SWAP2 POP PUSH2 0x742 DUP4 PUSH2 0x782 JUMP JUMPDEST SWAP3 POP DUP3 PUSH32 0xFFFFFFFFFFFFFFFFFFFFFFFFFFFFFFFFFFFFFFFFFFFFFFFFFFFFFFFFFFFFFFFF SUB DUP3 GT ISZERO PUSH2 0x777 JUMPI PUSH2 0x776 PUSH2 0x831 JUMP JUMPDEST JUMPDEST DUP3 DUP3 ADD SWAP1 POP SWAP3 SWAP2 POP POP JUMP JUMPDEST PUSH1 0x0 DUP2 SWAP1 POP SWAP2 SWAP1 POP JUMP JUMPDEST DUP3 DUP2 DUP4 CALLDATACOPY PUSH1 0x0 DUP4 DUP4 ADD MSTORE POP POP POP JUMP JUMPDEST PUSH1 0x0 JUMPDEST DUP4 DUP2 LT ISZERO PUSH2 0x7B9 JUMPI DUP1 DUP3 ADD MLOAD DUP2 DUP5 ADD MSTORE PUSH1 0x20 DUP2 ADD SWAP1 POP PUSH2 0x79E JUMP JUMPDEST DUP4 DUP2 GT ISZERO PUSH2 0x7C8 JUMPI PUSH1 0x0 DUP5 DUP5 ADD MSTORE JUMPDEST POP POP POP POP JUMP JUMPDEST PUSH1 0x0 PUSH1 0x2 DUP3 DIV SWAP1 POP PUSH1 0x1 DUP3 AND DUP1 PUSH2 0x7E6 JUMPI PUSH1 0x7F DUP3 AND SWAP2 POP JUMPDEST PUSH1 0x20 DUP3 LT DUP2 EQ ISZERO PUSH2 0x7FA JUMPI PUSH2 0x7F9 PUSH2 0x860 JUMP JUMPDEST JUMPDEST POP SWAP2 SWAP1 POP JUMP JUMPDEST PUSH2 0x809 DUP3 PUSH2 0x8D2 JUMP JUMPDEST DUP2 ADD DUP2 DUP2 LT PUSH8 0xFFFFFFFFFFFFFFFF DUP3 GT OR ISZERO PUSH2 0x828 JUMPI PUSH2 0x827 PUSH2 0x88F JUMP JUMPDEST JUMPDEST DUP1 PUSH1 0x40 MSTORE POP POP POP JUMP JUMPDEST PUSH32 0x4E487B7100000000000000000000000000000000000000000000000000000000 PUSH1 0x0 MSTORE PUSH1 0x11 PUSH1 0x4 MSTORE PUSH1 0x24 PUSH1 0x0 REVERT JUMPDEST PUSH32 0x4E487B7100000000000000000000000000000000000000000000000000000000 PUSH1 0x0 MSTORE PUSH1 0x22 PUSH1 0x4 MSTORE PUSH1 0x24 PUSH1 0x0 REVERT JUMPDEST PUSH32 0x4E487B7100000000000000000000000000000000000000000000000000000000 PUSH1 0x0 MSTORE PUSH1 0x41 PUSH1 0x4 MSTORE PUSH1 0x24 PUSH1 0x0 REVERT JUMPDEST PUSH1 0x0 DUP1 REVERT JUMPDEST PUSH1 0x0 DUP1 REVERT JUMPDEST PUSH1 0x0 DUP1 REVERT JUMPDEST PUSH1 0x0 DUP1 REVERT JUMPDEST PUSH1 0x0 PUSH1 0x1F NOT PUSH1 0x1F DUP4 ADD AND SWAP1 POP SWAP2 SWAP1 POP JUMP JUMPDEST PUSH2 0x8EC DUP2 PUSH2 0x782 JUMP JUMPDEST DUP2 EQ PUSH2 0x8F7 JUMPI PUSH1 0x0 DUP1 REVERT JUMPDEST POP JUMP INVALID LOG2 PUSH5 0x6970667358 0x22 SLT KECCAK256 DUP14 JUMP SWAP8 0xDE CREATE2 TIMESTAMP PUSH29 0x11426CF92EE10C902529304A5E79484CF0E58097A29331F70464736F6C PUSH4 0x43000807 STOP CALLER "
				},
				"gasEstimates": {
					"creation": {
						"codeDepositCost": "470400",
						"executionCost": "infinite",
						"totalCost": "infinite"
					},
					"external": {
						"Person()": "infinite",
						"addPerson(string,uint256)": "infinite",
						"fNumber()": "2429",
						"name_favNumberMap(string)": "infinite",
						"people(uint256)": "infinite",
						"pureFunction(uint256)": "infinite",
						"retrieve()": "2460",
						"store(uint256)": "22565"
					}
				},
				"methodIdentifiers": {
					"Person()": "0ee28e37",
					"addPerson(string,uint256)": "6f760f41",
					"fNumber()": "90ea423b",
					"name_favNumberMap(string)": "d6dea130",
					"people(uint256)": "9e7a13ad",
					"pureFunction(uint256)": "b9c03b9a",
					"retrieve()": "2e64cec1",
					"store(uint256)": "6057361d"
				}
			},
			"storageLayout": {
				"storage": [
					{
						"astId": 3,
						"contract": "contracts/4_SimpleStorage.sol:SimpleStorage",
						"label": "fNumber",
						"offset": 0,
						"slot": "0",
						"type": "t_uint256"
					},
					{
						"astId": 12,
						"contract": "contracts/4_SimpleStorage.sol:SimpleStorage",
						"label": "name_favNumberMap",
						"offset": 0,
						"slot": "1",
						"type": "t_mapping(t_string_memory_ptr,t_uint256)"
					},
					{
						"astId": 16,
						"contract": "contracts/4_SimpleStorage.sol:SimpleStorage",
						"label": "people",
						"offset": 0,
						"slot": "2",
						"type": "t_array(t_struct(People)8_storage)dyn_storage"
					},
					{
						"astId": 23,
						"contract": "contracts/4_SimpleStorage.sol:SimpleStorage",
						"label": "Person",
						"offset": 0,
						"slot": "3",
						"type": "t_struct(People)8_storage"
					}
				],
				"types": {
					"t_array(t_struct(People)8_storage)dyn_storage": {
						"base": "t_struct(People)8_storage",
						"encoding": "dynamic_array",
						"label": "struct SimpleStorage.People[]",
						"numberOfBytes": "32"
					},
					"t_mapping(t_string_memory_ptr,t_uint256)": {
						"encoding": "mapping",
						"key": "t_string_memory_ptr",
						"label": "mapping(string => uint256)",
						"numberOfBytes": "32",
						"value": "t_uint256"
					},
					"t_string_memory_ptr": {
						"encoding": "bytes",
						"label": "string",
						"numberOfBytes": "32"
					},
					"t_string_storage": {
						"encoding": "bytes",
						"label": "string",
						"numberOfBytes": "32"
					},
					"t_struct(People)8_storage": {
						"encoding": "inplace",
						"label": "struct SimpleStorage.People",
						"members": [
							{
								"astId": 5,
								"contract": "contracts/4_SimpleStorage.sol:SimpleStorage",
								"label": "fNumber",
								"offset": 0,
								"slot": "0",
								"type": "t_uint256"
							},
							{
								"astId": 7,
								"contract": "contracts/4_SimpleStorage.sol:SimpleStorage",
								"label": "name",
								"offset": 0,
								"slot": "1",
								"type": "t_string_storage"
							}
						],
						"numberOfBytes": "64"
					},
					"t_uint256": {
						"encoding": "inplace",
						"label": "uint256",
						"numberOfBytes": "32"
					}
				}
			},
			"userdoc": {
				"kind": "user",
				"methods": {},
				"version": 1
			}
		}
	}
}